:020000040800F2
:100000008804002001010008FF0B0008770B00089E
:10001000FD0B000899010008850D00080000000094
:10002000000000000000000000000000030C0008B9
:100030009B01000800000000010C0008050C0008EE
:100040001B0100081B0100081B0100081B01000820
:100050001B0100081B0100081B0100081B01000810
:100060001B0100081B0100081B0100081B01000800
:100070001B0100081B0100081B0100081B010008F0
:100080001B0100081B0100081B0100081B010008E0
:100090001B0100081B0100081B0100081B010008D0
:1000A0001B0100081B0100081B0100081B010008C0
:1000B0001B0100081B0100081B0100081B010008B0
:1000C0001B0100081B0100081B0100081B010008A0
:1000D0001B0100081B0100081B0100081B01000890
:1000E0001B0100081B0100081B010008DFF80CD0F1
:1000F00000F040F80048004765120008880400201E
:100100000648804706480047FEE7FEE7FEE7FEE7B1
:10011000FEE7FEE7FEE7FEE7FEE7FEE7670C000806
:10012000ED000008D2B201E000F8012B491EFBD21D
:1001300070470022F6E710B513460A4604461946F2
:10014000FFF7F0FF204610BD30B50B4601460020FA
:100150002022012409E021FA02F59D4205D303FA89
:1001600002F5491B04FA02F52844151EA2F101020A
:10017000F1DC30BD064C074D06E0E06840F00103BD
:1001800094E8070098471034AC42F6D3FFF7B2FF6B
:100190005414000874140008FEE7704772B6FEE7B6
:1001A00070B5044600F004F90546601C02D004480E
:1001B0000078044400F0FCF8401BA042FAD370BD64
:1001C000040000202DE9F84FDFF8B891002409F170
:1001D000040A0AF1040B23460F270BF1040EC9E0B1
:1001E0000125A5402A40AA427DD1674ED1F804C01E
:1001F000ACEB0608B44532D014DCBCF1030F3AD0A6
:1002000009DCBCF1000F2AD0BCF1010F1CD0BCF1FD
:10021000020F31D11DE0BCF1110F17D0BCF1120F4C
:100220002AD119E0B8F5881F19D006DCB8F5803F4F
:1002300015D0B8F5801F1FD111E0B8F5001F0ED002
:10024000B8F5041F18D10AE0CB6815E0CB681B1D78
:1002500012E0CB6808330FE0CB680C330CE08B68FE
:100260002BB1012B4FF0080303D0456104E00423B8
:1002700002E0056100E00023FF2A01D8064601E004
:1002800000F104064FEA840501D9A5F12005D6F84E
:10029000008007FA05FC28EA0C0803FA05F548EA8D
:1002A0000508C6F800804D68ED0062D5374DAE698F
:1002B00046F00106AE61AD6924F0030605F00105C4
:1002C0000095334D06EB050CDCF80850A607360FF9
:1002D00007FA06F825EA0805DFF8B880404503D19B
:1002E0004FF0000817E044E0DFF8AC80404502D151
:1002F0004FF001080FE0DFF8A480404502D14FF035
:10030000020808E0DFF89880404502D14FF003086A
:1003100001E04FF0040808FA06F848EA0508CCF8AE
:1003200008804D68D9F80060ED034D4601D51643AD
:1003300000E096432E604D68DAF80060AD03554644
:1003400001D5164300E096432E604D68DBF800604F
:10035000ED025D4601D5164300E096432E604D68E0
:10036000DEF80060AD02754601D5164300E0964305
:100370002E60641C0D682A46E5407FF431AFBDE86D
:10038000F88F00000004014000001110001002402E
:100390000000014000080140000C01400010014035
:1003A000001401408068084000D001207047000020
:1003B00001488068704700000400002002488168FE
:1003C000027811448160704704000020074810B58E
:1003D000016841F010010160032000F067F800207F
:1003E00000F006F800F024F8002010BD00200240C4
:1003F00070B50D4D04464FF47A712878B1FBF0F0DA
:100400000A490968B1FBF0F000F0DEFA48B9102C97
:1004100007D200222146501E00F028F800206C6010
:1004200070BD012070BD00000400002010000020FD
:100430000C4808B5816941F001018161816901F0D1
:1004400001010091C16941F08051C161C06900F0B2
:10045000805000900448416821F0E06141F0007153
:10046000416008BD0010024000000140F0B40E4B96
:100470001B680C46C3F30223C3F10705042D00D902
:100480000425191D072901D2002300E0DB1E0126E7
:1004900006FA05F1491E214099409E40761E1640FD
:1004A0003143F0BC00F080BC0CED00E0064900F0E8
:1004B000070208684FF6FF03184040EA0220034A8B
:1004C00010430860704700000CED00E00000FA05E2
:1004D0002DE9F0470F46050061D0434E306800F02B
:1004E0000700B84209D2306820F007003843306076
:1004F000306800F00700B84251D128683B4C8107B2
:1005000012D5400703D5606840F4E0606060287849
:10051000000703D5606840F4605060606068A968B7
:1005200020F0F000084360602878C00728D0686891
:10053000012810D02168022810D0890700292EDA5E
:10054000616821F0030101436160FFF731FF8046DC
:1005500041F288390DE021688903EFE78901EDE771
:10056000FFF726FFA0EB0801494502D90320BDE8AB
:10057000F0876068696800F00C00B0EB810FEFD184
:10058000306800F00700B8420BD9306820F007004F
:1005900038433060306800F00700B84201D00120D5
:1005A000E5E72878400705D56068E96820F4E06051
:1005B000084360602878000706D56068296920F440
:1005C000605040EAC100606000F038F86168084A95
:1005D000C1F30311515CC840064908600648006831
:1005E000FFF706FF0020C2E7002002400010024093
:1005F000DE13000810000020080000200448054910
:1006000000684968044AC1F30221515CC840704740
:100610001000002000100240EE13000804480549B5
:1006200000684968044AC1F3C221515CC840704760
:100630001000002000100240EE13000812A185B047
:100640000FC98DE80F0014A0144A00680490516887
:10065000134801F00C03042B10D0082B0ED1C1F36A
:100660008343C9031DF803000AD5516804AAC1F3E6
:100670004041515C0A4A5043B0FBF1F005B070476D
:1006800008494843FAE70000020304050607080981
:100690000A0B0C0D0E0F101001020000001002409A
:1006A00000127A0000093D002DE9F84F040070D0D7
:1006B0002078C04DC00749D06868C0F38100012888
:1006C00007D06868C0F38100022809D16868C003B8
:1006D00006D52868800339D560680028E7D035E062
:1006E0006068B0F5803F0BD010B1B0F5A02F11D0ED
:1006F000286820F480302860286820F4802002E0F8
:10070000286840F480302860606890B1FFF750FEA0
:1007100006460AE0286840F480202860F0E700BF21
:10072000FFF746FE801B642873D828688003F7D53E
:100730000CE0FFF73DFE064605E000BFFFF738FE80
:10074000801B6428F0D828688003F7D420789A4E5C
:1007500080074FF001094FF0000839D5686810F0A4
:100760000C0F07D06868C0F38100022809D16868BF
:10077000C00306D42868800714D52069012808D151
:1007800010E02069B0B1C6F80090FFF711FE0746EF
:1007900005E00AE1FFF70CFEC01B0228C4D8286858
:1007A0008007F7D52868616920F0F80040EAC100A9
:1007B00028600DE0C6F80080FFF7FAFD074604E068
:1007C000FFF7F6FDC01B022823D828688007F7D45E
:1007D000207800072CD57948A169D9B1C0F80090DC
:1007E000FFF7E6FD074604E0FFF7E2FDC01B022825
:1007F0000FD8686A8007F7D571484FF4FA5100683E
:10080000B0FBF1F0009000BF0098411E0091FAD2B9
:100810000EE080E0C0F80080FFF7CAFD074604E064
:10082000FFF7C6FDC01B022875D8686A8007F7D499
:100830002078400760D5E8690027C00008D4E8693F
:1008400040F08050E861E869012700F08050009096
:100850005C480168C90513D40168834641F480717E
:100860000160FFF7A5FD824606E000BFFFF7A0FD8F
:10087000A0EB0A0064284ED8DBF80000C005F5D5CF
:10088000E06801280AD008B1052813D0286A20F0B2
:1008900001002862286A20F0040002E0286A40F083
:1008A00001002862E06841F2883B98B1FFF780FDC3
:1008B00082460BE0286A40F004002862EEE700BFA1
:1008C000FFF776FDA0EB0A0159455AD8286A800740
:1008D000F6D50CE0FFF76CFD824605E0FFF768FDFA
:1008E000A0EB0A0159454CD8286A8007F6D41FB1FD
:1008F000E86920F08050E861E06988B36968C1F375
:100900008101022944D00228C6F8608004D0FFF794
:100910004FFD044638E034E0FFF74AFD074604E0A7
:10092000FFF746FDC01B02282BD828688001F7D4AA
:10093000206AB0F5803F05D16868A16820F40030D6
:1009400008436860D4E908010843696821F4741118
:1009500008436860C6F86090FFF72AFD044606E089
:1009600025E000BFFFF724FD001B022809D82868F6
:100970008001F7D51BE000BFFFF71AFD001B02281E
:1009800002D90320BDE8F88F28688001F4D40EE076
:100990000128F7D06868226A00F48031914204D1BE
:1009A000616A00F47010884201D00120EAE700205B
:1009B000E8E700000010024000004242800442428A
:1009C000100000200070004010B5401EB0F1807F84
:1009D00001D3012010BD4FF0E02460610F216017AA
:1009E00000F0E2F90020A06107202061002010BD86
:1009F00070B5040004D094F83D00002510B106E065
:100A0000012070BD84F83C50204600F023F82420DB
:100A100084F83D002068C16821F40051C16020467F
:100A200000F022F92068016921F4904101612068F9
:100A3000416921F02A0141612068C16841F40051F7
:100A4000C1602564202084F83D0084F83E00002029
:100A500070BD000030B585B000240094019402946C
:100A6000039400681449884224D11448816941F4F0
:100A700080418161816901F480410491816941F083
:100A80000401816180690E4D00F0040004904FF470
:100A900000700090022001900320039069462846D0
:100AA000FFF790FB2815CDE900046946284602941B
:100AB000FFF788FB05B030BD003801400010024050
:100AC000000801402DE9F843044690F83D001F4618
:100AD00016460D4620284CD1C5B1BEB194F83C0055
:100AE000012846D0012084F83C004FF00008C4F8EB
:100AF0004080212084F83D00FFF75AFCA6848146FF
:100B0000E684A068B0F5805F03D004E00120BDE872
:100B1000F883206928B12E465FF0000584F83C80F8
:100B20000EE00026FAE78021204600F0F9F8A0B98F
:100B3000AEB116F8010B21684860E08C401EE084DD
:100B4000E08C4B464FF0000200970028EBD14FF0AD
:100B50004001204600F0E4F830B10320D7E735F833
:100B6000020BC0F30800E6E7202084F83D000020D7
:100B7000CDE70220CBE7FEE700B585B0002001906D
:100B800003900E48816941F020018161816901F083
:100B900020010491816941F0040181618069694605
:100BA00000F0040004904FF40040009001200290F7
:100BB0000348FFF707FB05B000BD0000001002402E
:100BC000000801400C4810B50A4901604FF4E131BA
:100BD0004160002181600C22C160C0E90412816182
:100BE000C161FFF705FF002803D0BDE81040FFF703
:100BF000D5BA10BD0038014040000020FEE7FEE7F6
:100C000070477047FFF7DABB30B58FB028216846D0
:100C1000FFF78FFA14210AA8FFF78BFA01210804C5
:100C2000CDE900100024029402250491CDE907507B
:100C30004FF4E01009906846FFF736FD08B172B630
:100C4000FEE70F20CDE90A054FF48060CDE90C40A6
:100C500002210AA80E94FFF73BFC002801D072B6CF
:100C6000FEE70FB030BD704770B5044600680169FB
:100C7000E26821F44051114301612169A0680843F1
:100C8000616908432168CA6841F20C639A430243D0
:100C9000CA6020684169A26921F440711143416131
:100CA0001E492068884202D1FFF7B8FC01E0FFF737
:100CB000A5FC00EBC00101EB00126068642180001C
:100CC000B2FBF0F3B3FBF1F36FF018067343B2FB22
:100CD000F0F5B2FBF0F605EB8305322303EB0515C7
:100CE000B5FBF1F5B6FBF1F605F0F00505EB0615E1
:100CF000B2FBF0F6B2FBF0F0B0FBF1F06FF01802CF
:100D0000504306EB800003EB0010B0FBF1F02168CC
:100D100000F00F002844886070BD000000380140DA
:100D20002DE9F041984617460E460446069D1DE003
:100D3000681C1BD02DB1FFF73BFBA0EB0800A842BD
:100D400014D92068C16821F4D071C160206841695C
:100D500021F001014161202084F83D0084F83E002B
:100D6000002084F83C000320BDE8F0812068006882
:100D700036EA000004D00020B842D9D00020F3E7C2
:100D80000120F9E7FEE700000FB4054B10B503A9F9
:100D9000044A029800F028F810BC5DF814FB00002B
:100DA0004D120008140000200907090E002804DB7A
:100DB00000F1E02080F80014704700F00F0000F10F
:100DC000E02080F8141D704702E008C8121F08C117
:100DD000002AFAD170477047002001E001C1121FBC
:100DE000002AFBD1704700002DE9FF4F8BB09A46D7
:100DF0000F460546002606E025280BD052460D99E1
:100E000090476D1C761C28780028F5D10FB030462D
:100E1000BDE8F08F0024A0460122604900E00443B1
:100E200015F8013F203B02FA03F00842F7D1287879
:100E30002E2817D115F8010F44F004042A280ED0EB
:100E40006FF02F022878A0F1300109290AD808EBA9
:100E5000880102EB410100EB01086D1CF2E757F835
:100E6000048B6D1C287869283ED006DC0028CDD084
:100E700063280BD0642804D136E0732810D075287D
:100E80004BD052460D999047761C85E017F8040B1D
:100E90008DF8000000208DF80100E946012003E0F4
:100EA00057F8049B4FF0FF3061074FF0000401D466
:100EB0000AE0641C44450DDA8442FADB19F8041098
:100EC0000029F6D106E0641C8442FCDB19F804100A
:100ED0000029F8D1264404E019F8010B52460D9977
:100EE0009047641EF8D257E001CF4FF00A0B00285C
:100EF00002DA40422D2102E0210504D52B218DF894
:100F00002410012103E0E10705D02021F7E70DF1CE
:100F1000200908910CE00021F9E701CF4FF00A0BFE
:100F2000F9E75946FFF710F901F1300209F8012DF0
:100F30000028F6D1ADEB090000F1200B600701D4C9
:100F40004FF00108D84502DDA8EB0B0000E00020BF
:100F50008046002406E009A85246005D0D9990479E
:100F6000641C761C08988442F5DB04E0302052466D
:100F70000D999047761CB8F10001A8F10108F5DC45
:100F800005E019F8010B52460D999047761CBBF10C
:100F90000001ABF1010BF4DC6D1C34E70928010002
:100FA00000EB810082607047014902A0FFF7ECBEB0
:100FB0003913000825730D0A0000000070B50446BF
:100FC00040688047E1784A0702D02288521C22807C
:100FD000B0EBD11F0CD04FF0005202EBB1114FEA31
:100FE000B161C1F3C202E170032A04D360F3C711F7
:100FF00021F03800E070E078002500F007010629B4
:101000001ED2DFE801F0031E407B1D98C0F3801163
:10101000B1EBD01FA07820F0F0000FD1A070A16834
:1010200009B1204688472580A07820F00F00401C99
:10103000A070E07820F00700401C11E08030A07024
:1010400070BDC0F38011B1EBD01F0BD0A07820F0A1
:10105000F0001030A070E168A1B3204688475EE040
:10106000E07070BD2088C828FBD9A07820F0F0007F
:101070005030A070E16909B120468847E07820F03F
:101080000700401DECE7C0F38011B1EBD01F1AD16F
:10109000A07820F0F000A070A16809B12046884730
:1010A000A0784FF0805101EB30104FEA3070A07003
:1010B000216909B1204688472580E07820F00700A3
:1010C000C01CCDE72BE020883C28CAD9A07800F0CE
:1010D0000F01012902D0022906D00DE020F0F00016
:1010E0003030A070616904E020F0F0004030A07062
:1010F000A16909B120468847E07819E0C0F3801162
:10110000B1EBD01F11D0A07820F0F0001030A0700B
:10111000E16809B12046884720883C28ECD2258028
:10112000E07820F00700801C9AE721883C2998D9B4
:1011300020F0070094E7C0F38011B1EBD01FA07836
:1011400020F0F00008D16030A070216A002988D01A
:101150002046BDE8704008471030A070E168C8E73D
:1011600070B50D46164604462821FEF7E2FFA0782A
:1011700020F0F0008030A0706560A8470146E0785C
:1011800061F3C71066F38610E07070BD014902A0DC
:10119000FFF7FABDC313000825730D0A0000000015
:1011A000014902A0FFF7F0BD8F13000825730D0A57
:1011B00000000000807800F00F02024902A0FFF753
:1011C000E3BD00005613000825733A25640D0A009C
:1011D000014902A0FFF7D8BD7313000825730D0A5B
:1011E00000000000014902A0FFF7CEBDAA130008CD
:1011F00025730D0A00000000014902A0FFF7C4BDDD
:101200001C13000825730D0A00000000074A11682E
:101210000B4605E0814202D14FF0FF307047496A2A
:101220000029F7D1436210600020704700000020C1
:10123000054810B5046803E02046FFF7BFFE646A66
:10124000002CF9D110BD00000000002013B54FF0B4
:10125000FF33012269460248FFF734FC00981CBDA9
:1012600040000020FFF7B2F8FFF7CEFCFFF784FC48
:10127000FFF7A8FC1948FFF787FD00221849194815
:10128000FFF76EFF184A03211648FFF789FE174A39
:1012900004211448FFF784FE154A05211148FFF781
:1012A0007FFE144A06210F48FFF77AFE124A0221F8
:1012B0000C48FFF775FE114A00210A48FFF770FE3F
:1012C0000F4A01210748FFF76BFE0648FFF79EFF14
:1012D000FFF7AEFF0520FEF763FFF9E7F8130008FC
:1012E0000513000818000020F9110008A90F0008D4
:1012F000D1110008A1110008B51100088D110008D6
:10130000E511000810B54FF400410348FFF74AF813
:10131000012800D0002010BD0008014062757474DF
:101320006F6E5F73696E676C655F636C69636B5F3B
:1013300063616C6C6261636B00627574746F6E5F85
:10134000646F75626C655F636C69636B5F63616C2E
:101350006C6261636B00627574746F6E5F7072654E
:1013600073735F7265706561745F63616C6C6261F9
:10137000636B00627574746F6E5F70726573735F18
:1013800073746172745F63616C6C6261636B006241
:101390007574746F6E5F70726573735F686F6C6481
:1013A0005F63616C6C6261636B00627574746F6E15
:1013B0005F70726573735F75705F63616C6C62619F
:1013C000636B00627574746F6E5F70726573735FC8
:1013D000646F776E5F63616C6C6261636B000000C9
:1013E00000000000000001020304060708090000D5
:1013F00000000102030400002323232323232323CB
:1014000023232323232323232323232323232323AC
:10141000232323232053544D33322048414C204D65
:10142000756C7469427574746F6E2044656D6F20BD
:10143000232323232323232323232323232323237C
:101440002323232323232323232323230D0A0D0ACA
:1014500000000000741400080000002018000000C4
:10146000C80D00088C14000818000020700400004B
:10147000D80D00080000000001000000100000006E
:0C148000000000000024F4000000000048
:04000005080000ED02
:00000001FF
